{
  "contractName": "ERC1155CustomUpgradeableV1",
  "abi": [
    {
      "anonymous": false,
      "inputs": [
        {
          "indexed": false,
          "internalType": "address",
          "name": "previousAdmin",
          "type": "address"
        },
        {
          "indexed": false,
          "internalType": "address",
          "name": "newAdmin",
          "type": "address"
        }
      ],
      "name": "AdminChanged",
      "type": "event"
    },
    {
      "anonymous": false,
      "inputs": [
        {
          "indexed": true,
          "internalType": "address",
          "name": "account",
          "type": "address"
        },
        {
          "indexed": true,
          "internalType": "address",
          "name": "operator",
          "type": "address"
        },
        {
          "indexed": false,
          "internalType": "bool",
          "name": "approved",
          "type": "bool"
        }
      ],
      "name": "ApprovalForAll",
      "type": "event"
    },
    {
      "anonymous": false,
      "inputs": [
        {
          "indexed": true,
          "internalType": "address",
          "name": "beacon",
          "type": "address"
        }
      ],
      "name": "BeaconUpgraded",
      "type": "event"
    },
    {
      "anonymous": false,
      "inputs": [
        {
          "indexed": false,
          "internalType": "uint8",
          "name": "version",
          "type": "uint8"
        }
      ],
      "name": "Initialized",
      "type": "event"
    },
    {
      "anonymous": false,
      "inputs": [
        {
          "indexed": true,
          "internalType": "address",
          "name": "operator",
          "type": "address"
        },
        {
          "indexed": true,
          "internalType": "address",
          "name": "from",
          "type": "address"
        },
        {
          "indexed": true,
          "internalType": "address",
          "name": "to",
          "type": "address"
        },
        {
          "indexed": false,
          "internalType": "uint256[]",
          "name": "ids",
          "type": "uint256[]"
        },
        {
          "indexed": false,
          "internalType": "uint256[]",
          "name": "values",
          "type": "uint256[]"
        }
      ],
      "name": "TransferBatch",
      "type": "event"
    },
    {
      "anonymous": false,
      "inputs": [
        {
          "indexed": true,
          "internalType": "address",
          "name": "operator",
          "type": "address"
        },
        {
          "indexed": true,
          "internalType": "address",
          "name": "from",
          "type": "address"
        },
        {
          "indexed": true,
          "internalType": "address",
          "name": "to",
          "type": "address"
        },
        {
          "indexed": false,
          "internalType": "uint256",
          "name": "id",
          "type": "uint256"
        },
        {
          "indexed": false,
          "internalType": "uint256",
          "name": "value",
          "type": "uint256"
        }
      ],
      "name": "TransferSingle",
      "type": "event"
    },
    {
      "anonymous": false,
      "inputs": [
        {
          "indexed": false,
          "internalType": "string",
          "name": "value",
          "type": "string"
        },
        {
          "indexed": true,
          "internalType": "uint256",
          "name": "id",
          "type": "uint256"
        }
      ],
      "name": "URI",
      "type": "event"
    },
    {
      "anonymous": false,
      "inputs": [
        {
          "indexed": true,
          "internalType": "address",
          "name": "implementation",
          "type": "address"
        }
      ],
      "name": "Upgraded",
      "type": "event"
    },
    {
      "inputs": [
        {
          "internalType": "address",
          "name": "account",
          "type": "address"
        },
        {
          "internalType": "uint256",
          "name": "id",
          "type": "uint256"
        }
      ],
      "name": "balanceOf",
      "outputs": [
        {
          "internalType": "uint256",
          "name": "",
          "type": "uint256"
        }
      ],
      "stateMutability": "view",
      "type": "function",
      "constant": true
    },
    {
      "inputs": [
        {
          "internalType": "address[]",
          "name": "accounts",
          "type": "address[]"
        },
        {
          "internalType": "uint256[]",
          "name": "ids",
          "type": "uint256[]"
        }
      ],
      "name": "balanceOfBatch",
      "outputs": [
        {
          "internalType": "uint256[]",
          "name": "",
          "type": "uint256[]"
        }
      ],
      "stateMutability": "view",
      "type": "function",
      "constant": true
    },
    {
      "inputs": [
        {
          "internalType": "address",
          "name": "account",
          "type": "address"
        },
        {
          "internalType": "address",
          "name": "operator",
          "type": "address"
        }
      ],
      "name": "isApprovedForAll",
      "outputs": [
        {
          "internalType": "bool",
          "name": "",
          "type": "bool"
        }
      ],
      "stateMutability": "view",
      "type": "function",
      "constant": true
    },
    {
      "inputs": [],
      "name": "proxiableUUID",
      "outputs": [
        {
          "internalType": "bytes32",
          "name": "",
          "type": "bytes32"
        }
      ],
      "stateMutability": "view",
      "type": "function",
      "constant": true
    },
    {
      "inputs": [
        {
          "internalType": "address",
          "name": "from",
          "type": "address"
        },
        {
          "internalType": "address",
          "name": "to",
          "type": "address"
        },
        {
          "internalType": "uint256[]",
          "name": "ids",
          "type": "uint256[]"
        },
        {
          "internalType": "uint256[]",
          "name": "amounts",
          "type": "uint256[]"
        },
        {
          "internalType": "bytes",
          "name": "data",
          "type": "bytes"
        }
      ],
      "name": "safeBatchTransferFrom",
      "outputs": [],
      "stateMutability": "nonpayable",
      "type": "function"
    },
    {
      "inputs": [
        {
          "internalType": "address",
          "name": "from",
          "type": "address"
        },
        {
          "internalType": "address",
          "name": "to",
          "type": "address"
        },
        {
          "internalType": "uint256",
          "name": "id",
          "type": "uint256"
        },
        {
          "internalType": "uint256",
          "name": "amount",
          "type": "uint256"
        },
        {
          "internalType": "bytes",
          "name": "data",
          "type": "bytes"
        }
      ],
      "name": "safeTransferFrom",
      "outputs": [],
      "stateMutability": "nonpayable",
      "type": "function"
    },
    {
      "inputs": [
        {
          "internalType": "address",
          "name": "operator",
          "type": "address"
        },
        {
          "internalType": "bool",
          "name": "approved",
          "type": "bool"
        }
      ],
      "name": "setApprovalForAll",
      "outputs": [],
      "stateMutability": "nonpayable",
      "type": "function"
    },
    {
      "inputs": [
        {
          "internalType": "bytes4",
          "name": "interfaceId",
          "type": "bytes4"
        }
      ],
      "name": "supportsInterface",
      "outputs": [
        {
          "internalType": "bool",
          "name": "",
          "type": "bool"
        }
      ],
      "stateMutability": "view",
      "type": "function",
      "constant": true
    },
    {
      "inputs": [
        {
          "internalType": "address",
          "name": "newImplementation",
          "type": "address"
        }
      ],
      "name": "upgradeTo",
      "outputs": [],
      "stateMutability": "nonpayable",
      "type": "function"
    },
    {
      "inputs": [
        {
          "internalType": "address",
          "name": "newImplementation",
          "type": "address"
        },
        {
          "internalType": "bytes",
          "name": "data",
          "type": "bytes"
        }
      ],
      "name": "upgradeToAndCall",
      "outputs": [],
      "stateMutability": "payable",
      "type": "function",
      "payable": true
    },
    {
      "inputs": [
        {
          "internalType": "uint256",
          "name": "",
          "type": "uint256"
        }
      ],
      "name": "uri",
      "outputs": [
        {
          "internalType": "string",
          "name": "",
          "type": "string"
        }
      ],
      "stateMutability": "view",
      "type": "function",
      "constant": true
    },
    {
      "inputs": [],
      "name": "initialize",
      "outputs": [],
      "stateMutability": "nonpayable",
      "type": "function"
    },
    {
      "inputs": [
        {
          "internalType": "string",
          "name": "newuri",
          "type": "string"
        }
      ],
      "name": "setURI",
      "outputs": [],
      "stateMutability": "nonpayable",
      "type": "function"
    },
    {
      "inputs": [
        {
          "internalType": "address",
          "name": "account",
          "type": "address"
        },
        {
          "internalType": "uint256",
          "name": "id",
          "type": "uint256"
        },
        {
          "internalType": "uint256",
          "name": "amount",
          "type": "uint256"
        }
      ],
      "name": "mint",
      "outputs": [],
      "stateMutability": "nonpayable",
      "type": "function"
    },
    {
      "inputs": [
        {
          "internalType": "address",
          "name": "to",
          "type": "address"
        },
        {
          "internalType": "uint256[]",
          "name": "ids",
          "type": "uint256[]"
        },
        {
          "internalType": "uint256[]",
          "name": "amounts",
          "type": "uint256[]"
        },
        {
          "internalType": "bytes",
          "name": "data",
          "type": "bytes"
        }
      ],
      "name": "mintBatch",
      "outputs": [],
      "stateMutability": "nonpayable",
      "type": "function"
    }
  ],
  "bytecode": "0x60a06040523060805234801561001457600080fd5b5060805161234961004c6000396000818161052401528181610564015281816107220152818161076201526107ec01526123496000f3fe6080604052600436106100e75760003560e01c80633659cfe61161008a5780638129fc1c116100595780638129fc1c14610273578063a22cb46514610288578063e985e9c5146102a8578063f242432a146102f157600080fd5b80633659cfe6146101fe5780634e1273f41461021e5780634f1ef2861461024b57806352d1902d1461025e57600080fd5b80630e89341c116100c65780630e89341c14610171578063156e29f61461019e5780631f7fdffa146101be5780632eb2c2d6146101de57600080fd5b8062fdd58e146100ec57806301ffc9a71461011f57806302fe53051461014f575b600080fd5b3480156100f857600080fd5b5061010c610107366004611734565b610311565b6040519081526020015b60405180910390f35b34801561012b57600080fd5b5061013f61013a366004611774565b6103a9565b6040519015158152602001610116565b34801561015b57600080fd5b5061016f61016a366004611832565b6103fb565b005b34801561017d57600080fd5b5061019161018c366004611883565b610407565b60405161011691906118f4565b3480156101aa57600080fd5b5061016f6101b9366004611907565b61049b565b3480156101ca57600080fd5b5061016f6101d93660046119ef565b6104bb565b3480156101ea57600080fd5b5061016f6101f9366004611a88565b6104cd565b34801561020a57600080fd5b5061016f610219366004611b32565b610519565b34801561022a57600080fd5b5061023e610239366004611b4d565b6105ed565b6040516101169190611c53565b61016f610259366004611c66565b610717565b34801561026a57600080fd5b5061010c6107df565b34801561027f57600080fd5b5061016f610893565b34801561029457600080fd5b5061016f6102a3366004611caa565b6109c4565b3480156102b457600080fd5b5061013f6102c3366004611ce6565b6001600160a01b03918216600090815260666020908152604080832093909416825291909152205460ff1690565b3480156102fd57600080fd5b5061016f61030c366004611d19565b6109cf565b60006001600160a01b0383166103815760405162461bcd60e51b815260206004820152602a60248201527f455243313135353a2061646472657373207a65726f206973206e6f742061207660448201526930b634b21037bbb732b960b11b60648201526084015b60405180910390fd5b5060009081526065602090815260408083206001600160a01b03949094168352929052205490565b60006001600160e01b03198216636cdb3d1360e11b14806103da57506001600160e01b031982166303a24d0760e21b145b806103f557506301ffc9a760e01b6001600160e01b03198316145b92915050565b61040481610a14565b50565b60606067805461041690611d7e565b80601f016020809104026020016040519081016040528092919081815260200182805461044290611d7e565b801561048f5780601f106104645761010080835404028352916020019161048f565b820191906000526020600020905b81548152906001019060200180831161047257829003601f168201915b50505050509050919050565b6104b683838360405180602001604052806000815250610a27565b505050565b6104c784848484610b03565b50505050565b6001600160a01b0385163314806104e957506104e985336102c3565b6105055760405162461bcd60e51b815260040161037890611db9565b6105128585858585610c4f565b5050505050565b306001600160a01b037f00000000000000000000000000000000000000000000000000000000000000001614156105625760405162461bcd60e51b815260040161037890611e08565b7f00000000000000000000000000000000000000000000000000000000000000006001600160a01b03166105ab6000805160206122cd833981519152546001600160a01b031690565b6001600160a01b0316146105d15760405162461bcd60e51b815260040161037890611e54565b6040805160008082526020820190925261040491839190610dee565b606081518351146106525760405162461bcd60e51b815260206004820152602960248201527f455243313135353a206163636f756e747320616e6420696473206c656e677468604482015268040dad2e6dac2e8c6d60bb1b6064820152608401610378565b6000835167ffffffffffffffff81111561066e5761066e611791565b604051908082528060200260200182016040528015610697578160200160208202803683370190505b50905060005b845181101561070f576106e28582815181106106bb576106bb611ea0565b60200260200101518583815181106106d5576106d5611ea0565b6020026020010151610311565b8282815181106106f4576106f4611ea0565b602090810291909101015261070881611ecc565b905061069d565b509392505050565b306001600160a01b037f00000000000000000000000000000000000000000000000000000000000000001614156107605760405162461bcd60e51b815260040161037890611e08565b7f00000000000000000000000000000000000000000000000000000000000000006001600160a01b03166107a96000805160206122cd833981519152546001600160a01b031690565b6001600160a01b0316146107cf5760405162461bcd60e51b815260040161037890611e54565b6107db82826001610dee565b5050565b6000306001600160a01b037f0000000000000000000000000000000000000000000000000000000000000000161461087f5760405162461bcd60e51b815260206004820152603860248201527f555550535570677261646561626c653a206d757374206e6f742062652063616c60448201527f6c6564207468726f7567682064656c656761746563616c6c00000000000000006064820152608401610378565b506000805160206122cd8339815191525b90565b600054610100900460ff16158080156108b35750600054600160ff909116105b806108cd5750303b1580156108cd575060005460ff166001145b6109305760405162461bcd60e51b815260206004820152602e60248201527f496e697469616c697a61626c653a20636f6e747261637420697320616c72656160448201526d191e481a5b9a5d1a585b1a5e995960921b6064820152608401610378565b6000805460ff191660011790558015610953576000805461ff0019166101001790555b6109746040518060a001604052806063815260200161226a60639139610f59565b61097c610f89565b8015610404576000805461ff0019169055604051600181527f7f26b83ff96e1f2b6a682f133852f6798a09c465da95921460cefb38474024989060200160405180910390a150565b6107db338383610fb2565b6001600160a01b0385163314806109eb57506109eb85336102c3565b610a075760405162461bcd60e51b815260040161037890611db9565b6105128585858585611093565b80516107db90606790602084019061167f565b6001600160a01b038416610a4d5760405162461bcd60e51b815260040161037890611ee7565b336000610a59856111c1565b90506000610a66856111c1565b905060008681526065602090815260408083206001600160a01b038b16845290915281208054879290610a9a908490611f28565b909155505060408051878152602081018790526001600160a01b03808a1692600092918716917fc3d58168c5ae7397731d063d5bbf3d657854427343f4c083240f7aacaa2d0f62910160405180910390a4610afa8360008989898961120c565b50505050505050565b6001600160a01b038416610b295760405162461bcd60e51b815260040161037890611ee7565b8151835114610b4a5760405162461bcd60e51b815260040161037890611f40565b3360005b8451811015610be757838181518110610b6957610b69611ea0565b602002602001015160656000878481518110610b8757610b87611ea0565b602002602001015181526020019081526020016000206000886001600160a01b03166001600160a01b031681526020019081526020016000206000828254610bcf9190611f28565b90915550819050610bdf81611ecc565b915050610b4e565b50846001600160a01b031660006001600160a01b0316826001600160a01b03167f4a39dc06d4c0dbc64b70af90fd698a233a518aa5d07e595d983b8c0526c8f7fb8787604051610c38929190611f88565b60405180910390a461051281600087878787611368565b8151835114610c705760405162461bcd60e51b815260040161037890611f40565b6001600160a01b038416610c965760405162461bcd60e51b815260040161037890611fad565b3360005b8451811015610d80576000858281518110610cb757610cb7611ea0565b602002602001015190506000858381518110610cd557610cd5611ea0565b60209081029190910181015160008481526065835260408082206001600160a01b038e168352909352919091205490915081811015610d265760405162461bcd60e51b815260040161037890611ff2565b60008381526065602090815260408083206001600160a01b038e8116855292528083208585039055908b16825281208054849290610d65908490611f28565b9250508190555050505080610d7990611ecc565b9050610c9a565b50846001600160a01b0316866001600160a01b0316826001600160a01b03167f4a39dc06d4c0dbc64b70af90fd698a233a518aa5d07e595d983b8c0526c8f7fb8787604051610dd0929190611f88565b60405180910390a4610de6818787878787611368565b505050505050565b7f4910fdfa16fed3260ed0e7147f7cc6da11a60208b5b9406d12a635614ffd91435460ff1615610e21576104b683611423565b826001600160a01b03166352d1902d6040518163ffffffff1660e01b8152600401602060405180830381865afa925050508015610e7b575060408051601f3d908101601f19168201909252610e789181019061203c565b60015b610ede5760405162461bcd60e51b815260206004820152602e60248201527f45524331393637557067726164653a206e657720696d706c656d656e7461746960448201526d6f6e206973206e6f74205555505360901b6064820152608401610378565b6000805160206122cd8339815191528114610f4d5760405162461bcd60e51b815260206004820152602960248201527f45524331393637557067726164653a20756e737570706f727465642070726f786044820152681a58589b195555525160ba1b6064820152608401610378565b506104b68383836114bf565b600054610100900460ff16610f805760405162461bcd60e51b815260040161037890612055565b610404816114e4565b600054610100900460ff16610fb05760405162461bcd60e51b815260040161037890612055565b565b816001600160a01b0316836001600160a01b031614156110265760405162461bcd60e51b815260206004820152602960248201527f455243313135353a2073657474696e6720617070726f76616c20737461747573604482015268103337b91039b2b63360b91b6064820152608401610378565b6001600160a01b03838116600081815260666020908152604080832094871680845294825291829020805460ff191686151590811790915591519182527f17307eab39ab6107e8899845ad3d59bd9653f200f220920489ca2b5937696c31910160405180910390a3505050565b6001600160a01b0384166110b95760405162461bcd60e51b815260040161037890611fad565b3360006110c5856111c1565b905060006110d2856111c1565b905060008681526065602090815260408083206001600160a01b038c168452909152902054858110156111175760405162461bcd60e51b815260040161037890611ff2565b60008781526065602090815260408083206001600160a01b038d8116855292528083208985039055908a16825281208054889290611156908490611f28565b909155505060408051888152602081018890526001600160a01b03808b16928c821692918816917fc3d58168c5ae7397731d063d5bbf3d657854427343f4c083240f7aacaa2d0f62910160405180910390a46111b6848a8a8a8a8a61120c565b505050505050505050565b604080516001808252818301909252606091600091906020808301908036833701905050905082816000815181106111fb576111fb611ea0565b602090810291909101015292915050565b6001600160a01b0384163b15610de65760405163f23a6e6160e01b81526001600160a01b0385169063f23a6e619061125090899089908890889088906004016120a0565b6020604051808303816000875af192505050801561128b575060408051601f3d908101601f19168201909252611288918101906120e5565b60015b61133857611297612102565b806308c379a014156112d157506112ac61211d565b806112b757506112d3565b8060405162461bcd60e51b815260040161037891906118f4565b505b60405162461bcd60e51b815260206004820152603460248201527f455243313135353a207472616e7366657220746f206e6f6e20455243313135356044820152732932b1b2b4bb32b91034b6b83632b6b2b73a32b960611b6064820152608401610378565b6001600160e01b0319811663f23a6e6160e01b14610afa5760405162461bcd60e51b8152600401610378906121a7565b6001600160a01b0384163b15610de65760405163bc197c8160e01b81526001600160a01b0385169063bc197c81906113ac90899089908890889088906004016121ef565b6020604051808303816000875af19250505080156113e7575060408051601f3d908101601f191682019092526113e4918101906120e5565b60015b6113f357611297612102565b6001600160e01b0319811663bc197c8160e01b14610afa5760405162461bcd60e51b8152600401610378906121a7565b6001600160a01b0381163b6114905760405162461bcd60e51b815260206004820152602d60248201527f455243313936373a206e657720696d706c656d656e746174696f6e206973206e60448201526c1bdd08184818dbdb9d1c9858dd609a1b6064820152608401610378565b6000805160206122cd83398151915280546001600160a01b0319166001600160a01b0392909216919091179055565b6114c88361150b565b6000825111806114d55750805b156104b6576104c7838361154b565b600054610100900460ff166103fb5760405162461bcd60e51b815260040161037890612055565b61151481611423565b6040516001600160a01b038216907fbc7cd75a20ee27fd9adebab32041f755214dbc6bffa90cc0225b39da2e5c2d3b90600090a250565b60606001600160a01b0383163b6115b35760405162461bcd60e51b815260206004820152602660248201527f416464726573733a2064656c65676174652063616c6c20746f206e6f6e2d636f6044820152651b9d1c9858dd60d21b6064820152608401610378565b600080846001600160a01b0316846040516115ce919061224d565b600060405180830381855af49150503d8060008114611609576040519150601f19603f3d011682016040523d82523d6000602084013e61160e565b606091505b509150915061163682826040518060600160405280602781526020016122ed6027913961163f565b95945050505050565b6060831561164e575081611678565b82511561165e5782518084602001fd5b8160405162461bcd60e51b815260040161037891906118f4565b9392505050565b82805461168b90611d7e565b90600052602060002090601f0160209004810192826116ad57600085556116f3565b82601f106116c657805160ff19168380011785556116f3565b828001600101855582156116f3579182015b828111156116f35782518255916020019190600101906116d8565b506116ff929150611703565b5090565b5b808211156116ff5760008155600101611704565b80356001600160a01b038116811461172f57600080fd5b919050565b6000806040838503121561174757600080fd5b61175083611718565b946020939093013593505050565b6001600160e01b03198116811461040457600080fd5b60006020828403121561178657600080fd5b81356116788161175e565b634e487b7160e01b600052604160045260246000fd5b601f8201601f1916810167ffffffffffffffff811182821017156117cd576117cd611791565b6040525050565b600067ffffffffffffffff8311156117ee576117ee611791565b604051611805601f8501601f1916602001826117a7565b80915083815284848401111561181a57600080fd5b83836020830137600060208583010152509392505050565b60006020828403121561184457600080fd5b813567ffffffffffffffff81111561185b57600080fd5b8201601f8101841361186c57600080fd5b61187b848235602084016117d4565b949350505050565b60006020828403121561189557600080fd5b5035919050565b60005b838110156118b757818101518382015260200161189f565b838111156104c75750506000910152565b600081518084526118e081602086016020860161189c565b601f01601f19169290920160200192915050565b60208152600061167860208301846118c8565b60008060006060848603121561191c57600080fd5b61192584611718565b95602085013595506040909401359392505050565b600067ffffffffffffffff82111561195457611954611791565b5060051b60200190565b600082601f83011261196f57600080fd5b8135602061197c8261193a565b60405161198982826117a7565b83815260059390931b85018201928281019150868411156119a957600080fd5b8286015b848110156119c457803583529183019183016119ad565b509695505050505050565b600082601f8301126119e057600080fd5b611678838335602085016117d4565b60008060008060808587031215611a0557600080fd5b611a0e85611718565b9350602085013567ffffffffffffffff80821115611a2b57600080fd5b611a378883890161195e565b94506040870135915080821115611a4d57600080fd5b611a598883890161195e565b93506060870135915080821115611a6f57600080fd5b50611a7c878288016119cf565b91505092959194509250565b600080600080600060a08688031215611aa057600080fd5b611aa986611718565b9450611ab760208701611718565b9350604086013567ffffffffffffffff80821115611ad457600080fd5b611ae089838a0161195e565b94506060880135915080821115611af657600080fd5b611b0289838a0161195e565b93506080880135915080821115611b1857600080fd5b50611b25888289016119cf565b9150509295509295909350565b600060208284031215611b4457600080fd5b61167882611718565b60008060408385031215611b6057600080fd5b823567ffffffffffffffff80821115611b7857600080fd5b818501915085601f830112611b8c57600080fd5b81356020611b998261193a565b604051611ba682826117a7565b83815260059390931b8501820192828101915089841115611bc657600080fd5b948201945b83861015611beb57611bdc86611718565b82529482019490820190611bcb565b96505086013592505080821115611c0157600080fd5b50611c0e8582860161195e565b9150509250929050565b600081518084526020808501945080840160005b83811015611c4857815187529582019590820190600101611c2c565b509495945050505050565b6020815260006116786020830184611c18565b60008060408385031215611c7957600080fd5b611c8283611718565b9150602083013567ffffffffffffffff811115611c9e57600080fd5b611c0e858286016119cf565b60008060408385031215611cbd57600080fd5b611cc683611718565b915060208301358015158114611cdb57600080fd5b809150509250929050565b60008060408385031215611cf957600080fd5b611d0283611718565b9150611d1060208401611718565b90509250929050565b600080600080600060a08688031215611d3157600080fd5b611d3a86611718565b9450611d4860208701611718565b93506040860135925060608601359150608086013567ffffffffffffffff811115611d7257600080fd5b611b25888289016119cf565b600181811c90821680611d9257607f821691505b60208210811415611db357634e487b7160e01b600052602260045260246000fd5b50919050565b6020808252602f908201527f455243313135353a2063616c6c6572206973206e6f7420746f6b656e206f776e60408201526e195c881b9bdc88185c1c1c9bdd9959608a1b606082015260800190565b6020808252602c908201527f46756e6374696f6e206d7573742062652063616c6c6564207468726f7567682060408201526b19195b1959d85d1958d85b1b60a21b606082015260800190565b6020808252602c908201527f46756e6374696f6e206d7573742062652063616c6c6564207468726f7567682060408201526b6163746976652070726f787960a01b606082015260800190565b634e487b7160e01b600052603260045260246000fd5b634e487b7160e01b600052601160045260246000fd5b6000600019821415611ee057611ee0611eb6565b5060010190565b60208082526021908201527f455243313135353a206d696e7420746f20746865207a65726f206164647265736040820152607360f81b606082015260800190565b60008219821115611f3b57611f3b611eb6565b500190565b60208082526028908201527f455243313135353a2069647320616e6420616d6f756e7473206c656e677468206040820152670dad2e6dac2e8c6d60c31b606082015260800190565b604081526000611f9b6040830185611c18565b82810360208401526116368185611c18565b60208082526025908201527f455243313135353a207472616e7366657220746f20746865207a65726f206164604082015264647265737360d81b606082015260800190565b6020808252602a908201527f455243313135353a20696e73756666696369656e742062616c616e636520666f60408201526939103a3930b739b332b960b11b606082015260800190565b60006020828403121561204e57600080fd5b5051919050565b6020808252602b908201527f496e697469616c697a61626c653a20636f6e7472616374206973206e6f74206960408201526a6e697469616c697a696e6760a81b606082015260800190565b6001600160a01b03868116825285166020820152604081018490526060810183905260a0608082018190526000906120da908301846118c8565b979650505050505050565b6000602082840312156120f757600080fd5b81516116788161175e565b600060033d11156108905760046000803e5060005160e01c90565b600060443d101561212b5790565b6040516003193d81016004833e81513d67ffffffffffffffff816024840111818411171561215b57505050505090565b82850191508151818111156121735750505050505090565b843d870101602082850101111561218d5750505050505090565b61219c602082860101876117a7565b509095945050505050565b60208082526028908201527f455243313135353a204552433131353552656365697665722072656a656374656040820152676420746f6b656e7360c01b606082015260800190565b6001600160a01b0386811682528516602082015260a06040820181905260009061221b90830186611c18565b828103606084015261222d8186611c18565b9050828103608084015261224181856118c8565b98975050505050505050565b6000825161225f81846020870161189c565b919091019291505056fe68747470733a2f2f697066732e6d6f72616c69732e696f3a323035332f697066732f516d52734674784262646d383864476d703261625956756b69543451646f693147337133314b59426f5744394c722f6d657461646174612f7b69647d2e6a736f6e360894a13ba1a3210667c828492db98dca3e2076cc3735a920a3ca505d382bbc416464726573733a206c6f772d6c6576656c2064656c65676174652063616c6c206661696c6564a26469706673582212205799c4abf8b93b58d1179c7d4e3eec6bbca456b6d357f6c48685f6e23cc2e9fc64736f6c634300080b0033",
  "immutableReferences": {
    "705": [
      {
        "length": 32,
        "start": 1316
      },
      {
        "length": 32,
        "start": 1380
      },
      {
        "length": 32,
        "start": 1826
      },
      {
        "length": 32,
        "start": 1890
      },
      {
        "length": 32,
        "start": 2028
      }
    ]
  },
  "source": "// SPDX-License-Identifier: MIT\npragma solidity ^0.8.11;\n\nimport \"@openzeppelin/contracts-upgradeable/token/ERC1155/ERC1155Upgradeable.sol\";\nimport \"@openzeppelin/contracts-upgradeable/access/OwnableUpgradeable.sol\";\nimport \"@openzeppelin/contracts-upgradeable/proxy/utils/Initializable.sol\";\nimport \"@openzeppelin/contracts-upgradeable/proxy/utils/UUPSUpgradeable.sol\";\n\ncontract ERC1155CustomUpgradeableV1 is\n    Initializable,\n    ERC1155Upgradeable,\n    UUPSUpgradeable\n{\n    function initialize() public initializer {\n        __ERC1155_init(\n            \"https://ipfs.moralis.io:2053/ipfs/QmRsFtxBbdm88dGmp2abYVukiT4Qdoi1G3q31KYBoWD9Lr/metadata/{id}.json\"\n        );\n        __UUPSUpgradeable_init();\n    }\n\n    function setURI(string memory newuri) public {\n        _setURI(newuri);\n    }\n\n    function mint(\n        address account,\n        uint256 id,\n        uint256 amount\n    ) public {\n        _mint(account, id, amount, \"\");\n    }\n\n    function mintBatch(\n        address to,\n        uint256[] memory ids,\n        uint256[] memory amounts,\n        bytes memory data\n    ) public {\n        _mintBatch(to, ids, amounts, data);\n    }\n\n    function _authorizeUpgrade(address newImplementation) internal override {}\n}\n",
  "sourcePath": "/Users/m/Desktop/dev/web3/Upgradeable-contracts/Truffle/contracts/ERC1155CustomUpgradeable/ERC1155CustomUpgradeableV1.sol",
  "compiler": {
    "name": "solc",
    "version": "0.8.11+commit.d7f03943.Emscripten.clang"
  },
  "schemaVersion": "3.4.9",
  "updatedAt": "2022-08-28T20:00:22.576Z",
  "networkType": "ethereum",
  "devdoc": {
    "kind": "dev",
    "methods": {
      "balanceOf(address,uint256)": {
        "details": "See {IERC1155-balanceOf}. Requirements: - `account` cannot be the zero address."
      },
      "balanceOfBatch(address[],uint256[])": {
        "details": "See {IERC1155-balanceOfBatch}. Requirements: - `accounts` and `ids` must have the same length."
      },
      "isApprovedForAll(address,address)": {
        "details": "See {IERC1155-isApprovedForAll}."
      },
      "proxiableUUID()": {
        "details": "Implementation of the ERC1822 {proxiableUUID} function. This returns the storage slot used by the implementation. It is used to validate that the this implementation remains valid after an upgrade. IMPORTANT: A proxy pointing at a proxiable contract should not be considered proxiable itself, because this risks bricking a proxy that upgrades to it, by delegating to itself until out of gas. Thus it is critical that this function revert if invoked through a proxy. This is guaranteed by the `notDelegated` modifier."
      },
      "safeBatchTransferFrom(address,address,uint256[],uint256[],bytes)": {
        "details": "See {IERC1155-safeBatchTransferFrom}."
      },
      "safeTransferFrom(address,address,uint256,uint256,bytes)": {
        "details": "See {IERC1155-safeTransferFrom}."
      },
      "setApprovalForAll(address,bool)": {
        "details": "See {IERC1155-setApprovalForAll}."
      },
      "supportsInterface(bytes4)": {
        "details": "See {IERC165-supportsInterface}."
      },
      "upgradeTo(address)": {
        "details": "Upgrade the implementation of the proxy to `newImplementation`. Calls {_authorizeUpgrade}. Emits an {Upgraded} event."
      },
      "upgradeToAndCall(address,bytes)": {
        "details": "Upgrade the implementation of the proxy to `newImplementation`, and subsequently execute the function call encoded in `data`. Calls {_authorizeUpgrade}. Emits an {Upgraded} event."
      },
      "uri(uint256)": {
        "details": "See {IERC1155MetadataURI-uri}. This implementation returns the same URI for *all* token types. It relies on the token type ID substitution mechanism https://eips.ethereum.org/EIPS/eip-1155#metadata[defined in the EIP]. Clients calling this function must replace the `\\{id\\}` substring with the actual token type ID."
      }
    },
    "version": 1
  },
  "userdoc": {
    "kind": "user",
    "methods": {},
    "version": 1
  }
}